:100000004EC0000067C0000065C0000063C0000073
:1000100061C000005FC000005DC000005BC0000068
:1000200059C0000057C0000055C0000053C0000078
:1000300051C000004FC000004DC000004BC0000088
:1000400049C0000047C00000DEC00000ACC0000096
:1000500041C000003FC000003DC000003BC00000A8
:1000600039C0000037C000000A48656C6C6F20572B
:100070006F726C640A002563004D414749432C2090
:1000800064756D70696E670A004C4F474F46462C89
:100090002073746F70207265636F72640A0011249C
:1000A0001FBECFEFD4E0DEBFCDBF11E0A0E0B1E0D6
:1000B000E2EDFEE002C005900D92A431B107D9F740
:1000C00022E0A4E1B1E001C01D92AB34B207E1F738
:1000D000BDD0FDC695CFA2E0B0E0E0E7F0E0BCC641
:1000E00099838A8342E0BE016F5F7F4F80EA54D4D8
:1000F0002296E2E0CDC6A3E0B0E0E0E8F0E0ACC6D6
:100100004B8369837A83E7DF4B8169817A8181112F
:1001100002C080EA65D4898336D489812396E2E0DF
:10012000B7C6A2E0B0E0E6E9F0E092C6142F69831A
:100130007A83D1DF082F6981E62E7A81F72E160F98
:1001400004C0F70181917F01F9D31E11FACF1BD4AE
:10015000802F2296E6E098C63FB7F8942091E201FE
:100160009091E301921708F001C09B59921B3FBF89
:10017000943691F32FB7F8949091E301E92FF0E0D2
:10018000EE51FE4F8283892F8F5F853618F480935E
:10019000E30102C01092E3018091C100806280936C
:1001A000C1002FBF08951F920F920FB60F92112416
:1001B0002F938F939F93EF93FF938091E201E82F0A
:1001C000F0E0EE51FE4F92818F5F853618F48093F8
:1001D000E20102C01092E2012091E2018091E3016C
:1001E000281305C08091C1008F7D8093C10090933A
:1001F000C600FF91EF919F918F912F910F900FBEAD
:100200000F901F9018951F920F920FB60F92112406
:100210008F939F93EF93FF939091C60080917C0101
:10022000E82FF0E0E558FE4F92838F5F853618F493
:1002300080937C0102C010927C01FF91EF919F910D
:100240008F910F900FBE0F901F901895A6E0B0E011
:10025000EBE2F1E0F1C51092E3011092E20110929D
:100260007C0110927B018DE780936400239A2B9A86
:1002700088E690E09F938F9337D2529A5A9A50987B
:10028000589A1092C50080E18093C40082E4809364
:10029000C0008EE08093C20088E98093C100449A38
:1002A000459A8CE08093B8001092B90042E069E46E
:1002B00072E080E090E01FDF8091490290914A0255
:1002C00040970F900F90803F9F47B0F080E190E003
:1002D00090934A028093490280E090E0FCDE8823FC
:1002E00029F051D309C080E029D302C001E010E811
:1002F00001501109C1F7F5CF109214017894E5E18E
:10030000CE2EE1E0DE2EF6E7AF2EF0E0BF2EC98262
:100310009FB7F89480917B0120917C01281710F001
:10032000722E03C075E6772E720E781A9FBF45E1D4
:10033000E42E41E0F42E212C50E8352E69E8462EBB
:1003400060E0562ECDC09FB7F89480917B01E82FD6
:10035000F0E0E558FE4F62808F5F853618F4809399
:100360007B0102C010927B019FBF062D10E01F92FF
:100370006F92BF92AF92B8D10F900F900F900F90E5
:10038000209179018AE0681619F09DE0691216C083
:10039000109279012B3009F0A0C0E9E7F0E0FF935B
:1003A000EF93A2D1109214010091490210914A02D8
:1003B0004101801A910A0F900F9058C0E22FF0E08F
:1003C000EF5FFE4F8081992787FD909580179107F9
:1003D00021F42F5F2093790102C0109279012091BE
:1003E0007A01E22FF0E0E35FFE4F8081992787FDDD
:1003F00090958017910781F4822F8F5F863009F0E6
:10040000B8C010927A015F924F926ED181E08093D2
:1004100014010F900F9061C010927A015EC09E820D
:100420008D8285E68816910420F0E4E6F0E0FE83F4
:10043000ED834D8165E171E0C8015DDE25E131E0CC
:100440009D81F9819F0F0AC0F90181919F01EA8383
:100450003B839C8381DE9C813B812A819213F4CF74
:100460008D819E81881A990A080F191F81149104A1
:10047000B1F6E0914902F0914A027197FE83ED8353
:1004800030E1832E912C25C00D811E81053611058A
:1004900010F004E610E0402F65E171E0C4012BDEAE
:1004A00025E131E09981900F0AC0F90181919F0106
:1004B000EA833B839C8350DE9C813B812A8192139B
:1004C000F4CF8D819E81801B910B9E838D83800E46
:1004D000911EED81FE81EF2BB9F6F70161927F014C
:1004E0008E2D8C19871508F42ECF8091140181115F
:1004F0003BC08091490290914A02072D10E098017B
:10050000280F391F37FF1CC0E12C20E8F22EE81A13
:10051000F90A4E2D65E171E004DE7E1880E190E07D
:1005200090934A0280934902B7016B5E7E4F472D3C
:10053000F8DD8091490290914A02870D911D0AC011
:10054000472D65E171E0EDDD8091490290914A020D
:10055000800F911F90934A028093490242E069E420
:1005600072E080E090E0DDDD8BB194E089278BB90B
:10057000CFCE80937A01B1CF282F822F9FB7F894E6
:100580002B9875B165E06A95F1F7777F80FD78600B
:1005900075B9869564E06A95F1F70000777F80FD74
:1005A000786075B9869564E06A95F1F7777F80FD8C
:1005B000786075B9869564E06A95F1F70000777FF9
:1005C00080FD786075B9869564E06A95F1F7777F6C
:1005D00080FD786075B9869564E06A95F1F7000052
:1005E000777F80FD786075B9869564E06A95F1F74C
:1005F000777F80FD786075B9869564E06A95F1F73C
:100600000000777F80FD786075B9869564E06A9513
:10061000F1F72B9A61E06A95F1F79FBF0895A0E08A
:10062000B0E0E4E1F3E012C48C0197FF05C08DE275
:10063000A3DF119501951109C80160E177E2E9D3C3
:100640007B0125E030E0C0E1D7E2EAE0F0E007C05E
:10065000CE01BF01DED3EB01C801DBD37B01E11486
:10066000F104D1F42150310999F716C08E2D805D27
:1006700083DFCE9DC001CF9D900DDE9D900D112496
:10068000081B190BCE01B601C4D3EB01209739F03A
:10069000C801BFD37B0103C08AE0C82ED12C1C1631
:1006A0001D0624F3CDB7DEB7E8E0ECC3CF93C82F27
:1006B000982F92959F70892F9A3010F0895A01C017
:1006C000805D5ADF8C2F8F708A3010F0895A01C0FC
:1006D000805D52DFCF910895CF93C82F892FE6DF39
:1006E0008C2FE4DFCF9108956F927F929F92AF920B
:1006F000BF92CF92DF92EF92FF920F931F93CF930F
:10070000DF931F92CDB7DEB7FE017196A190B19035
:100710007F01F5018491C7C0853209F0BCC0912CDE
:10072000FFEFAF1ABF0AF50184918037C1F16CF475
:10073000843699F034F48E3291F3833609F0A4C0F4
:1007400044C0863609F0A0C047C0853731F08837ED
:1007500061F0833709F098C02AC087010E5F1F4FF0
:10076000F701808191815BDF98C0F2E09F1621F054
:1007700088E0981214C007C087010E5F1F4FF70171
:10078000808194DF8AC087010C5F1F4FF701C08012
:10079000D180E280F380C7019FDFC60106C08701D8
:1007A0000E5F1F4FF7018081918196DF76C0870130
:1007B0000E5F1F4FF701E080F18001C0DDDEF70121
:1007C00081917F018111FACF68C087010E5F1F4FB1
:1007D000F7018081D1DE61C0911002C092E0992EB4
:1007E00087010C5F1F4FF701C080D180E280F3804A
:1007F00020E030E0A901C701B6017AD187FF06C029
:100800008DE2BADEF7FAF094F7F8F094C701B6017A
:10081000B9D272D13B01CB0102DFB301882777FD4A
:100820008095982F9CD19B01AC01C701B601FBD0EC
:100830006B01F82E8EE299839FDE998120E030E0F3
:1008400040E251E46C2D7D2D8F2D39D23B016C019E
:10085000772D9D2D97D250D17B01882777FD8095EC
:10086000982F7DD19B01AC01662D772D8C2D9D2D70
:10087000DAD06B01F82E8E2D805D99837DDE9A94FF
:1008800099819110DBCF09C08053FAE09F9E800DC3
:100890001124982E45CF70DE87018FEFA81AB80A71
:1008A000F50184917801811137CF0F90DF91CF91BD
:1008B0001F910F91FF90EF90DF90CF90BF90AF907E
:1008C0009F907F906F9008959091B900987F9817AE
:1008D00021F08091B900892F089580E008958091DA
:1008E000BC0087FFFCCF089584EA8093BC00F7DF4B
:1008F0008091000180FF02C080E1E6CF88E0E4DF64
:10090000811105C0909100019160909300010895BC
:10091000A1E0B0E0EDE8F4E09FC28093BB0094E872
:100920009093BC008983DBDF898180FF02C080E473
:1009300001C088E1C9DF2196E2E0AAC28093BB0032
:1009400084E88093BC00CBDF88E2BECFA1E0B0E0BA
:10095000EBEAF4E07FC28C01613011F484E801C05D
:1009600084EC8093BC006983BADF8091BB00F801FE
:1009700080836981613011F488E501C080E5A4DFDE
:100980002196E4E083C284E98093BC008091000159
:100990008E7F809300010895EF92FF920F931F9333
:1009A000CF93DF93C82F062FE72EF42E9DDF182F4D
:1009B000811111C08C2FACDF182F81110CC0C02FFA
:1009C000DE2D0F0D04C08991B9DF811103C00C1316
:1009D000FACF01C0182F812FCDB7DEB7E6E054C2A1
:1009E000FF920F931F93CF93DF93F82EEB01042F09
:1009F0007BDF182F811112C08F2D816089DF182FA6
:100A0000882341F00BC0602FCE01A0DF2196811119
:100A100004C001500111F7CF01C0182F812FCDB7AD
:100A2000DEB7E5E032C25058BB27AA270ED00DC171
:100A3000FED030F003D120F031F49F3F11F41EF4CA
:100A4000F3C00EF4E095E7FBE9C0E92F0FD180F386
:100A5000BA17620773078407950718F071F49EF5BB
:100A600027C10EF4E0950B2EBA2FA02D0B01B90172
:100A700090010C01CA01A0011124FF27591B99F014
:100A8000593F50F4503E68F11A16F040A22F232F20
:100A9000342F4427585FF3CF469537952795A79570
:100AA000F0405395C9F77EF41F16BA0B620B730B17
:100AB000840BBAF09150A1F0FF0FBB1F661F771F88
:100AC000881FC2F70EC0BA0F621F731F841F48F43D
:100AD000879577956795B795F7959E3F08F0B3CFC3
:100AE0009395880F08F09927EE0F979587950895AD
:100AF00071D008F481E0089504D06894B111D9C090
:100B00000895BCD088F09F5790F0B92F9927B7511E
:100B1000A0F0D1F0660F771F881F991F1AF0BA95C1
:100B2000C9F712C0B13081F0C3D0B1E00895C0C0A0
:100B3000672F782F8827B85F39F0B93FCCF38695B7
:100B400077956795B395D9F73EF490958095709514
:100B500061957F4F8F4F9F4F0895E89409C097FB91
:100B60003EF490958095709561957F4F8F4F9F4F84
:100B70009923A9F0F92F96E9BB279395F6958795C8
:100B800077956795B795F111F8CFFAF4BB0F11F48B
:100B900060FF1BC06F5F7F4F8F4F9F4F16C0882332
:100BA00011F096E911C0772321F09EE8872F762F68
:100BB00005C0662371F096E8862F70E060E02AF0A9
:100BC0009A95660F771F881FDAF7880F9695879595
:100BD00097F90895990F0008550FAA0BE0E8FEEF6A
:100BE00016161706E807F907C0F012161306E407F1
:100BF000F50798F0621B730B840B950B39F40A26EA
:100C000061F0232B242B252B21F408950A2609F4C7
:100C1000A140A6958FEF811D811D089597F99F67CB
:100C200080E870E060E008959FEF80EC0895002474
:100C30000A941616170618060906089500240A9441
:100C400012161306140605060895092E0394000CC7
:100C500011F4882352F0BB0F40F4BF2B11F460FF56
:100C600004C06F5F7F4F8F4F9F4F089557FD90587F
:100C7000440F551F59F05F3F71F04795880F97FB60
:100C8000991F61F09F3F79F087950895121613061A
:100C90001406551FF2CF4695F1DF08C01616170649
:100CA0001806991FF1CF869571056105089408957E
:100CB000E894BB2766277727CB0197F908950BD0D7
:100CC000C4CFB5DF28F0BADF18F0952309F0A6CF1E
:100CD000ABCF1124EECFCADFA0F3959FD1F3950FD0
:100CE00050E0551F629FF001729FBB27F00DB11DB0
:100CF000639FAA27F00DB11DAA1F649F6627B00D40
:100D0000A11D661F829F2227B00DA11D621F739F28
:100D1000B00DA11D621F839FA00D611D221F749F36
:100D20003327A00D611D231F849F600D211D822F7D
:100D3000762F6A2F11249F5750408AF0E1F08823C4
:100D40004AF0EE0FFF1FBB1F661F771F881F9150D1
:100D50005040A9F79E3F510570F060CFAACF5F3F8A
:100D6000ECF3983EDCF3869577956795B795F79504
:100D7000E7959F5FC1F7FE2B880F911D969587958C
:100D800097F908952FD020F09F3708F492CF01C033
:100D90001BC0882371F4772321F09850872B762F7E
:100DA00007C0662311F499270DC09051862B70E07F
:100DB00060E02AF09A95660F771F881FDAF7880F90
:100DC0009695879597F908959F3F31F0915020F4BB
:100DD000879577956795B795880F911D9695879517
:100DE00097F908954BDFA0F0BEE7B91788F4BB2749
:100DF0009F3860F41616B11D672F782F8827985FEB
:100E0000F7CF869577956795B11D93959639C8F379
:100E1000089597FB072E16F4009406D077FD08D0AE
:100E200042D007FC05D03EF4909581959F4F0895E0
:100E3000709561957F4F08952F923F924F925F92E8
:100E40006F927F928F929F92AF92BF92CF92DF92DA
:100E5000EF92FF920F931F93CF93DF93CDB7DEB73F
:100E6000CA1BDB0B0FB6F894DEBF0FBECDBF0994D3
:100E70002A88398848885F846E847D848C849B842A
:100E8000AA84B984C884DF80EE80FD800C811B8138
:100E9000AA81B981CE0FD11D0FB6F894DEBF0FBE67
:100EA000CDBFED010895AA1BBB1B51E107C0AA1FCE
:100EB000BB1FA617B70710F0A61BB70B881F991FFB
:100EC0005A95A9F780959095BC01CD010895F894A5
:020ED000FFCF52
:100ED200804C6F676765722044756D7000552D42B6
:040EE2006F6F7400BA
:00000001FF
